:020000040800F2
:1000000000C00020597F0008276700082967000802
:100010002B6700082D6700082F670008000000000C
:100020000000000000000000000000003167000830
:1000300033670008000000003567000837670008D4
:10004000A17F0008A17F0008A17F0008A17F000810
:10005000A17F0008A17F0008A17F0008A17F000800
:10006000A17F0008A17F0008A17F0008456100086A
:100070004567000855670008A17F0008A17F0008B8
:10008000A17F0008A17F0008A17F0008A17F0008D0
:10009000A17F0008A17F0008A17F0008A17F0008C0
:1000A000A17F0008A17F0008A17F0008A17F0008B0
:1000B000A17F0008A17F0008A17F0008A17F0008A0
:1000C000A17F0008A17F0008A17F0008A17F000890
:1000D000A17F0008A17F0008A17F000865670008D4
:1000E000A17F0008A17F0008A17F0008A17F000870
:1000F000A17F0008A17F0008A17F0008A17F000860
:10010000A17F0008A17F0008A17F0008A17F00084F
:10011000A17F0008A17F0008A17F0008A17F00083F
:10012000A17F0008A17F0008A17F0008A17F00082F
:1001300000000000000000000000000000000000BF
:1001400000000000000000000000000000000000AF
:10015000000000000000000000000000000000009F
:10016000000000000000000000000000000000008F
:10017000000000000000000000000000000000007F
:10018000000000000000000000000000000000006F
:10019000000000000000000000000000000000005F
:1001A000000000000000000000000000000000004F
:1001B000000000000000000000000000000000003F
:1001C000000000000000000000000000000000002F
:1001D000000000000000000000000000000000001F
:0401E0005FF8E0F1F3
:1001E4000348044B834202D0034B03B118477047C2
:1001F400C4010020C4010020000000000548064B93
:100204001B1AD90F01EBA301491002D0034B03B110
:1002140018477047C4010020C401002000000000FA
:1002240010B5064C237843B9FFF7DAFF044B13B13A
:100234000448AFF300800123237010BDC8010020DF
:1002440000000000A47F000808B5044B1BB104495A
:100254000448AFF30080BDE80840CFE70000000089
:10026400CC010020A47F000870B50F4B0F4DAB42AA
:10027400A3EB050607D00024B61055F8043B01345F
:100284009847A642F9D807F08BFE094D094B5E1B2F
:10029400AB424FEAA60606D0002455F8043B0134CD
:1002A4009847A642F9D870BD608A0008608A0008A1
:1002B400608A0008648A0008844641EA000313F057
:1002C400030349D1403A23D30B6803604B6843606E
:1002D4008B688360CB68C3600B6903614B694361BE
:1002E4008B698361CB69C3610B6A03624B6A4362A6
:1002F4008B6A8362CB6AC3620B6B03634B6B43638E
:100304008B6B8363CB6BC36340304031403ADBD2A9
:1003140030320BD30B6803604B6843608B68836097
:10032400CB68C36010301031103AF3D20C3205D3CD
:1003340051F8043B40F8043B043AF9D2043208D0A3
:10034400D2071CBF11F8013B00F8013B01D30B8815
:1003540003806046704700BF082A13D38B07B1D0CF
:1003640010F00303AED0C3F10403D21ADB071CBFA1
:1003740011F8013B00F8013BA4D331F8023B20F80B
:10038400023B9FE7043AD9D3013A11F8013B00F844
:10039400013BF9D20B7803704B7843708B788370F0
:1003A4006046704770B5860747D0541E002A3ED079
:1003B4000346CAB201E0013C39D303F8012B9D077F
:1003C400F9D1032C2CD9CDB205EB05250F2C1A46F7
:1003D40005EB054534D9A4F1100C2CF00F0603F1FC
:1003E400100EB6444FEA1C1C156055609560D5602C
:1003F40010327245F8D10CF1010214F00C0F03EB2A
:10040400021204F00F0C13D0ACF1040323F0030325
:100414000433134442F8045B9A42FBD10CF0030406
:100424002CB1C9B21C4403F8011B9C42FBD170BD22
:1004340064461346002CF4D1F9E703461446C0E79A
:10044400A446E1E70EB410B5044683B008B183694D
:100454005BB106AB2046059AA168019300F02CFD20
:1004640003B0BDE8104003B0704700F045FBF0E76F
:100474000FB410B50A4B82B01C680CB1A3695BB110
:1004840005AB2046049AA168019300F015FD02B063
:10049400BDE8104004B07047204600F02DFBEFE7A4
:1004A4000000002070B50646002856D083690D462A
:1004B40013B384682B4B9C422AD02B4B9C424ED0C6
:1004C4002A4B9C4208BFF468A3891B0724D52369DF
:1004D40013B3013DA36815F8011F013BA36059B391
:1004E400002B04DAA26993421DDB0A291BD023687E
:1004F4005A1C22601970EDE700F0FEFAB369B46883
:10050400002BD7D1304600F0F7FA164B9C42D4D1D9
:100514007468A3891B07DAD42146304600F092F8A8
:100524000028D6D005E02246304600F029F80130F4
:10053400D0D14FF0FF3070BD002B08DA22460A21DB
:10054400304600F01DF80130F3D00A2070BD0A22B5
:100554002368591C21601A70F7E78368FFDEB468CA
:10056400B2E700BF00800008E07F0008C07F0008F9
:10057400024B01461868FFF795BF00BF000000203A
:10058400F8B506460D46144608B1836943B3254BB6
:100594009C422AD0244B9C4229D0244B9C4208BF25
:1005A400F468A269A389A2601A0722D5236903B358
:1005B40022686169D31AEDB299422F4629DD0133CD
:1005C400A1680139A160511C2160157062699A42C9
:1005D40016D0A389DB0701D50A2D11D03846F8BD02
:1005E40000F08AFA0F4B9C42D4D17468D9E7B468FE
:1005F400D7E72146304600F025F838B92369D7E714
:100604002146304600F01AF90028E7D04FF0FF37B2
:10061400E4E72146304600F011F90028F6D1012321
:100624002268CDE700800008E07F0008C07F000852
:1006340003460A46024908681946FFF7A1BF00BFEE
:1006440000000020384B70B51D6806460C460DB1FD
:10065400AB69D3B1354B9C421DD0354B9C4248D03D
:10066400344B9C4208BFEC68B4F90C30190717D519
:100674002269FAB113F001012BD000206169A06056
:100684004942A1615AB3002070BD284600F034FAF3
:10069400264B9C42E1D16C68B4F90C301907E7D4BD
:1006A400DA063CD55D0726D4226943F00803A3810A
:1006B400002ADFD103F42071B1F5007FDAD021469E
:1006C400304600F07DFAB4F90C30226913F00101D0
:1006D400D3D1980758BF6169A160002AD3D1190604
:1006E40058BF1046D0D543F040034FF0FF30A381EC
:1006F40070BDAC68B8E7616B51B104F1440291423A
:1007040004D0304600F0E4FAB4F90C3000226263FD
:100714000021226923F02403C4E90021C5E709224A
:1007240043F040033260E0E700000020008000084E
:10073400E07F0008C07F0008F8B5B1F90C300C4622
:100744001E0707463CD44A68002A56DDE56A002D98
:1007540034D000223E683A6013F4805259D1012308
:100764003846216AA847451C02465DD0B4F90C30CE
:10077400E56A580705D56368D21A636B0BB1236C1D
:10078400D21A216A00233846A847411C43D13B684A
:10079400002B40D01D2B01D0162B32D1002322690F
:1007A400C4E90023616B3E6041B104F14403994202
:1007B40002D0384600F08CFA002363630020F8BDB1
:1007C4000E69002EFAD09B0718BF00230D6808BFDE
:1007D4004B690E60AD1B8B600CE02B463246D4F89F
:1007E40028C03846216AE047B0F1000CA5EB0C059F
:1007F400664406DD002DF0DCE0E70A6C002AA5DC87
:10080400DCE7B4F90C304FF0FF3043F04003A38130
:10081400F8BD626DADE70022236962602360A3899D
:10082400DA04BFD56065BDE73B68002B9ED01D2B65
:1008340001D0162BE5D13E60C0E700BF38B50B6987
:10084400BBB10C46054608B18369B3B10D4B9C425C
:1008540011D00D4B9C4213D00C4B9C4208BFEC684A
:10086400B4F90C302BB121462846BDE83840FFF7D7
:1008740063BF002038BD6C68F2E700F03DF9E5E79E
:10088400AC68EDE700800008E07F0008C07F000846
:1008940038B540B3184A036904461568D3B10DB19D
:1008A400AB69CBB1154B9C420FD0154B9C4221D068
:1008B400144B9C4208BFEC68B4F90C3053B1214688
:1008C4002846BDE83840FFF737BF6C68B4F90C30F0
:1008D400002BF4D1002038BD284600F00DF9074B59
:1008E4009C42E2D1F1E7084B08491868BDE838405A
:1008F40000F042B9AC68DFE7000000200080000887
:10090400E07F0008C07F0008BC7F000841080008A1
:1009140000207047014900F02FB900BF41080008CA
:1009240000207047682370B54D1E03FB05F50E4685
:1009340005F1740100F02AFA044640B100210C309C
:10094400C4E9016005F168022160FFF72BFD204630
:1009540070BD00BFF8B5254B06461F68BB693BB3A5
:100964004837D7E90134013B04D51DE05A1C04F192
:10097400680419D0B4F90C50013B002DF6D11C4B7E
:1009840008222946C4E90155C4E90455E3606566B3
:100994002560A56104F15C00FFF704FDC4E90D5571
:1009A400C4E912552046F8BD3D682DB12F46D8E75D
:1009B400384600F01FF8D3E74FF4D671304600F004
:1009C400E5F9044668B104230560294605460C3060
:1009D4004FF4D072A0606360FFF7E4FC3C602F46E4
:1009E400BFE70C2338603360DCE700BFBC7F00083E
:1009F4000100FFFF0023334A2DE9F0471268C0E9E4
:100A040012339042036508BF01232F4908BF836155
:100A140081620546FFF79EFF034628466B60FFF799
:100A240099FFA86028460024FFF794FF04236E680A
:100A3400DFF898A0DFF89890DFF89880264FE860F8
:100A44000822F3602146C6E90044C6E90444B460C0
:100A54007466B46106F15C00FFF7A4FC1F4BC6E9A1
:100A6400086AC6E90A983763AE680822F36021462B
:100A7400C6E90044C6E90444B4607466B46106F18E
:100A84005C00FFF78FFC164BC6E9086AC6E90A98B2
:100A94003763EE682146F3600822C6E90044C6E9DC
:100AA4000444B4607466B46106F15C00FFF77AFC38
:100AB4000123C6E9086AC6E90B87C6F82890AB612A
:100AC400BDE8F087BC7F000819090008711500080B
:100AD40099150008D9150008FD1500080900010042
:100AE40012000200024B0349186800F045B800BF29
:100AF400BC7F000841080008836903B97AE770479E
:100B0400704700BF704700BF704700BF704700BF09
:100B1400024B0349186800F00FB800BF0000002022
:100B240015090008024B0349186800F005B800BF16
:100B340000000020250900082DE9F0410026884620
:100B440000F14807D7E90154013D0ED4A389013DC2
:100B5400012B06D9B4F90E30013302D02046C04728
:100B640006436B1C04F16804F0D13F68002FE9D1FF
:100B74003046BDE8F08100BF2DE9F8434FF000098D
:100B84000746884600F14806D6E90154013D10D4D1
:100B9400A389013D012B08D9B4F90E30013304D0E7
:100BA40021463846C04749EA00096B1C04F1680431
:100BB400EED13668002EE7D14846BDE8F88300BF81
:100BC400F0B5B1F90C300C46990797B007D501225E
:100BD40004F14703C4E90432236017B0F0BDB4F94B
:100BE4000E10054600292EDB6A4600F031FD002870
:100BF40027DB019E4FF4806706F47046A6F5005685
:100C0400B6FA86F639462846760900F0BFF838B3B6
:100C1400A3891B4A43F08003AA62C4E90407A381A1
:100C24002060002ED9D02846B4F90E1000F092FEB0
:100C34000028D2D0A38923F0030343F00103A38146
:100C4400CBE7B4F90C3013F0800F0CBF4FF480677E
:100C5400402728463946002600F098F80028D7D1C6
:100C6400B4F90C309A05B8D4012123F0030304F13C
:100C7400470243F00203C4E90421A3812260ACE7E4
:100C84001909000870B50C46B1F90E101546002973
:100C94001E4696B00FDB6A4600F0DAFC00280ADB39
:100CA400019B4FF4806203F47043A3F50053B3FA3D
:100CB40083F35B0907E0A289002312F0800F14BFBD
:100CC40040224FF48062002033602A6016B070BD69
:100CD400002950D038B551F8043C0C1F002BB8BF84
:100CE400E418054600F028FF274A13682BB1A342F5
:100CF4000CD92168601883422CD0284663601460A4
:100D0400BDE8384000F01ABFA3420FD81A465B680A
:100D1400002BF9D111685018844217D02CD363608A
:100D240054602846BDE8384000F008BF11685018E8
:100D3400A04214D020D8216860188342EFD11868EB
:100D44005B680844C4E900035460EAE723680B4481
:100D54001360E6E718685B6808442060CDE7206804
:100D64000144501883421160DBD1D3E900040144EB
:100D7400C2E90014D5E770470C2328462B60BDE870
:100D8400384000F0DBBE00BFE4010020F8B5CD1C04
:100D940025F0030508350C2D38BF0C25002D06461B
:100DA40015DBA94213D8254F00F0C6FE3A6892B16C
:100DB400144603E0636822466BB11C4623685B1B40
:100DC400F8D40B2B29D923601C44256018E00C238C
:100DD40033600020F8BD796859B32946304600F0E5
:100DE400B3FB431C01461ED0C41C24F00304A042E0
:100DF40005D03046611A00F0A7FB013013D02560FE
:100E0400304600F09BFE04F10B00231D20F0070088
:100E1400C21A1CBF1B1AA350F8BD636894420CBFCE
:100E24003B605360ECE70C233046336000F086FEF1
:100E3400CFE7304600F088FB7860CEE7E40100207D
:100E44009368013B002B936005DAD2F818C0634520
:100E540007DB0A2905D01368581C1060084619706E
:100E64007047FFF78DBB00BF9BB1F8B5134406462E
:100E74000F46541E5D1E01E0AC4208D03A4630468F
:100E840014F8011FFFF7DCFF431CF5D1F8BD002067
:100E9400F8BD0020704700BF936810B514461BB915
:100EA40018460023636010BD00F0E6FB0023A36036
:100EB4000023636010BD00BF2DE9F04FA1B0894647
:100EC40092461C46039018B18369002B00F0A6805B
:100ED4009A4B994500F0A880994B994500F0B6804B
:100EE400984B994504BF039BD3F80C90B9F80C3088
:100EF400180740F1A180D9F81030002B00F09C8035
:100F04000023D04643F220020D9398F800300126C6
:100F1400DA468D4D0794ADF83920002B76D047463C
:100F240004E017F8013F002B00F09480252BF8D142
:100F3400B7EB080B40F091803B78002B66D0002380
:100F44004FF0FF320137CDE9092308930B938DF855
:100F540063301E9304E0401B06FA00F00343089339
:100F6400B8460522284617F8011B00F01BFD089B14
:100F74000028F0D1D90644BF20228DF863201A0737
:100F840048BF2B2298F8001048BF8DF863202A2907
:100F94007AD1079A1168043200290792C0F2A98015
:100FA4000B9198F8011008F101082E297ED0674FA3
:100FB4000322384600F0F6FC38B14022089BC01BDF
:100FC4008240134308F10108089318F8011B062214
:100FD4005F488DF8381000F0E5FC002800F08F80A1
:100FE4005C4B002B77D007A900914A4603985A4BD3
:100FF40008A9AFF300808246BAF1FF3F06D00D9BEB
:1010040053440D9398F80030002B88D1B9F80C3074
:101014005B0618D40D9821B0BDE8F08FFFF76CFD86
:10102400464B99457FF458AF039BD3F80490B9F825
:101034000C3018073FF55FAF49460398FFF702FBF2
:1010440000283FF45DAF4FF0FF30E4E7039BD3F893
:1010540008904BE7B7EB080BD8D008F1FF34CDE983
:1010640004A72746039C01E0D3453BD9BA464A4628
:10107400204617F8011FFFF7E3FE0AF1020A0130C8
:10108400AAEB080AF0D1C1E7A1F13002092A8CD8F1
:101094000B9B18F8011F03EB830302EB4303A1F13D
:1010A4003002092AF5D92E290B9380D198F8011022
:1010B4002A292ED1079B08F102001A680433002A5A
:1010C4000793B8BF4FF0FF3398F802100992804697
:1010D400B8BF09936BE7079B073323F00703083373
:1010E40007938CE70D99DDE904A759443B780D91EA
:1010F40023E7494243F002030B91089351E707A900
:1011040000914A460398144B08A900F0C9F8824696
:1011140072E70023A1F13002092A08F101080993BA
:101124003FF645AF18F8011F03EB830302EB4303BB
:10113400A1F13002092AF5D9099338E700800008A3
:10114400E07F0008C07F0008248A00082C8A000879
:10115400308A0008000000006D0E00088C4600B5BF
:1011640086461346034A714610685DF804EB6246EE
:10117400FFF7A2BE000000202DE9F84F92461F465B
:101184000A698B680C469A42B8BF1A46CAF800200E
:1011940091F843300646DDF8289013B10132CAF8BD
:1011A4000020226891065FD5DAF800300233CAF8CD
:1011B4000030226812F0060F11461DD1E1689942F1
:1011C400D8BF114618DD4FF0000804F1190B05E0F3
:1011D400E568DAF80030ED1A45450CDD01235A467E
:1011E40039463046C847013008F10108F0D14FF0C4
:1011F400FF30BDE8F88F216894F84330003B18BFF6
:1012040001238A060AD53021E21882F8431094F8A3
:1012140045105A1C2244023382F8431039463046A2
:1012240004F14302C8470130E1D02368DAF8001022
:1012340003F00603042BE2681DD0A36822699342DD
:1012440022DD4FF000089B1A984400251A3401E06F
:10125400454519DA0123224639463046C84701304C
:1012640005F10105F4D1C2E712F0060F0FD0003BDF
:1012740018BF0123D2E7511AA368226921EAE17851
:101284009342E0DC0029E0DC0020BDE8F88FE1684F
:10129400DAF800309942D8BF114694DCACE700BFBD
:1012A4002DE9F04717460A7E84B00C460646984658
:1012B4000C9D01F1430C002A33D0A2F15803D9B29A
:1012C400202967D8202B65D8DFE813F0DE006400FE
:1012D40064006400640064006400640064006400EA
:1012E4006400A7006E0064006400640064006E0083
:1012F400640064006400640021008000C100640094
:101304006400B1006400800064006400E4002368A9
:101314001A0640F1E1802B686269191D29601B6877
:101324001A600023E14623613B4621463046CDF84E
:10133400008003AAFFF720FF013020D04A46394637
:1013440030462369C047013019D02368E0689B0701
:10135400DDF80C9018D5484516DD002504F1190A6E
:1013640004E0E068A0EB0903AB420DDD0123524623
:1013740039463046C047013005F10105F1D14FF03F
:10138400FF3004B0BDE8F0874845B8BF484604B014
:10139400BDE8F087012084F8422004F142090023CB
:1013A400206184F84330BFE723681A0602D4580644
:1013B40000F1A88029680A68043129601146002ACE
:1013C400C0F2A7804FF00A0E5D4811E023681906A9
:1013D40040F18E802B68191D296019686F2A14BF8B
:1013E4004FF00A0E4FF0080E5548002384F843309E
:1013F4006268002AA2604FDB236823F004032360A1
:10140400002949D1002A40F09380E146BEF1080F3B
:1014140053D0ACEB0903236186E72A6801201168E5
:1014240004322A6004F1420984F84210B7E72B68B9
:1014340000211A1D2A60D3F800906268484600F023
:10144400B1FA00287AD0A0EB09006060A7E723680E
:1014540043F02003236078223A4884F845202A6820
:10146400111D29601D0635D4590633D51188DD07B1
:1014740044BF43F02003236019B9236823F02003F9
:1014840023604FF0100EB0E758232D4884F8453000
:101494002368E4E72368DEE77546E146B1FBF5F32C
:1014A4000A4605FB131A194610F80A30AA4209F82D
:1014B400013DF3D2BEF1080FABD12368D907A8D5FB
:1014C400626823699A42A4DC302309F1FF3989F860
:1014D40000309EE71168CAE713F0400F2B68626979
:1014E40003F1040129601B6814BF1A801A6018E70D
:1014F40013F0400F2B6803F1040129600CBF196835
:1015040019886BE72A68B2F9001004322A600A4687
:1015140055E72D2284F843206268002AA26002DB8A
:1015240023F0040323600A250548AE464942B4E784
:10153400037804F1420984F8423067E760682EE7D3
:10154400388A00084C8A0008002238B5064D044643
:1015540008462A6000F064FB431C00D038BD2B68A9
:10156400002BFBD0236038BDEC01002010B50C46E5
:10157400B1F90E1000F00CFB002803DB636D03448B
:10158400636510BDA38923F48053A38110BD00BFFC
:10159400002070472DE9F0410C46B1F90C101F46AC
:1015A400CB05054616460BD421F48051A1813B4658
:1015B40032462846B4F90E10BDE8F04100F020B8D8
:1015C400B4F90E100223002200F0D6F9B4F90C107D
:1015D400EAE700BF10B50C46B1F90E1000F0CCF9E3
:1015E400B4F90C30421C0EBF23F4805343F48053EF
:1015F4006065A38110BD00BFB1F90E1000F016B8EC
:1016040038B50C46114600228446074D20462A6010
:101614001A46644603F0CEF9431C00D038BD2B684B
:10162400002BFBD0236038BDEC010020002238B52C
:10163400064D044608462A6000F0CAFA431C00D04E
:1016440038BD2B68002BFBD0236038BDEC01002093
:1016540070B50026074D0446084611462E6000F07A
:10166400BFFA431C00D070BD2B68002BFBD0236055
:1016740070BD00BFEC0100209368002B00F0B28025
:101684002DE9F04F8046B1F90C00174602070C46CD
:1016940083B025D50B691BB310F002033D682BD032
:1016A4004FF0000B5E46DFF8A8A2002E00F0878002
:1016B400564533465A4628BF53464046216AD4F815
:1016C40028C0E047002840F38380BB6883441B1A8A
:1016D400361ABB60002BE8D1002003B0BDE8F08FC0
:1016E40021464046FEF7AEFF002876D1B4F90C003F
:1016F4003D6810F00203D3D110F0010974D14E46B5
:10170400002E58D08305D4F808B040F1B080B3451A
:101714005A4600F2C88010F4906F00F0C680226828
:101724002369A2EB030A62690AF1010102EB420296
:1017340002EBD27231445210914292BF93468B46CF
:101744000A46410540F1E68011464046FFF71EFB7C
:10175400002800F0F680524621690190FEF7ACFDA6
:10176400A289019B22F4906242F08002A28103EBE1
:101774000A002361C4F814B0ABEB0A033246B34643
:10178400A3602060B24600264946019200F056F953
:10179400A368019AA3EB0B012368A160134423609F
:1017A400BB68D144A3EB0A03BB60002B94D0B4F90B
:1017B4000C00002EA6D1D5E900960835A0E7D5E99E
:1017C40000B6083571E721464046FFF737F878B38D
:1017D400B4F90C3043F04003A3814FF0FF3003B061
:1017E400BDE8F08F002070471E46BA469946184659
:1017F4001F465EB380B34A46D4E904C32068B242AC
:1018040028BF32466045A16803D901EB030B5A4552
:1018140072DC934263DC3A464046216AD4F828C01D
:10182400E047B0F1000BD3DDB9EB0B09CBD00120BD
:10183400DAF808305F44A3EB0B03A6EB0B06CAF8F7
:101844000830002B3FF448AF002ED3D16E682B46EE
:101854000835002EFAD01F6832460A21384600F0B7
:10186400A1F800286AD00130A0EB0709C3E720687B
:10187400236998421BD86369B34218D86FF0004CAF
:10188400B44528BFB4469CFBF3FC4A4603FB0CF367
:101894004046216AD4F828C0E047B0F1000A97DD39
:1018A400A6EB0A067CE7B346324620686AE7B345EE
:1018B400DA4628BFB2464946524600F0BFF8A3684C
:1018C4002268A3EB0A035244A3602260002BE7D1F1
:1018D40021464046FEF7B2FF0028E1D078E73946BA
:1018E4009346019200F0AAF8A368019A9B1AA36098
:1018F40023681344236097E739465A4600F09EF85C
:10190400236821465B4440462360FEF797FF002886
:101914008AD05DE71946404600F012F903460028D4
:101924007FF425AF40462169FFF7D2F90C22B4F9C0
:101934000C30C8F8002023F080034BE7721C91465A
:101944005AE70C22B4F90C30C8F8002042E700BF73
:1019540000FCFF7F002238B5064D044608462A6085
:1019640000F046F9431C00D038BD2B68002BFBD097
:10197400236038BDEC01002038B50C461146002226
:101984008446074D20462A601A46644600F038F91A
:10199400431C00D038BD2B68002BFBD0236038BD1E
:1019A400EC0100205FFA81FC810744D00346511EFC
:1019B40022B909E09A0709D0013905D318460278FB
:1019C40001336245F6D17047002070471846032959
:1019D4000CD80029F8D00346014401E08B42F3D02F
:1019E400184613F8012B6245F8D1ECE710B50CEB5F
:1019F4000C24024604EB044402E00439032918D9F8
:101A0400104652F8043B6340A3F1013E2EEA03035F
:101A140013F0803FF1D051B10346014401E08B4201
:101A240005D0184613F8012B6245F8D110BD0020EB
:101A340010BD1046EFE71146C9E700BF88420ED932
:101A44008B1883420BD900EB020C002A6DD062463E
:101A540013F801CD994202F801CDF9D170470F2A4C
:101A64000FD8034602F1FF3C002A5ED00CF1010CB2
:101A7400013B8C4411F8012B614503F8012FF9D186
:101A8400704740EA01039B0750D1A2F1100370B5DF
:101A940001F1200C23F00F0501F1100E00F11004E8
:101AA400AC441B095EF8105C0EF1100E44F8105C97
:101AB4005EF81C5C103444F81C5C5EF8185C44F856
:101AC400185C5EF8145CE64544F8145CEAD1013312
:101AD40012F00C0F01EB031102F00F0400EB0313DF
:101AE40028D08E46043C24F003064FEA940C1E448E
:101AF4001C1F5EF8045B44F8045FB442F9D10CF196
:101B0400010402F0030203EB840301EB840102F1FC
:101B1400FF3C4AB10CF1010C013B8C4411F8012B40
:101B2400614503F8012FF9D170BD7047034602F1F6
:101B3400FF3C9BE72246EAE7704700BF704700BFBF
:101B4400F8B51446F1B1C2B106460D4600F036F8B8
:101B5400A04202D32F463846F8BD21463046FFF74F
:101B640015F9074658B122462946FEF7A5FB30462B
:101B74002946FFF7ADF83846F8BDFFF7A9F8002766
:101B84003846F8BD1146BDE8F840FFF7FFB800BF7E
:101B940038B50C46114600228446074D20462A607B
:101BA4001A46644600F034F8431C00D038BD2B6854
:101BB400002BFBD0236038BDEC01002051F8040C4D
:101BC4000028A0F10400BCBF0B58C018704700BF28
:101BD4005822024B4FF0FF301A607047EC0100208E
:101BE4005822024B4FF0FF301A607047EC0100207E
:101BF4005822024B00201A60704700BFEC010020FD
:101C04005822024B4FF0FF301A607047EC0100205D
:101C14005822024B4FF0FF301A607047EC0100204D
:101C2400044A05491368002B08BF0B46184410608A
:101C340018467047F001002000100020044B0022D9
:101C4400DA61044A136943F00103136101807047A8
:101C5400F801002000200240194BDB6813F0100348
:101C640005D0184AD36943F00203D3611023144A00
:101C7400D26812F0040F06D01249CA6942F0010278
:101C8400CA6143F004030E4AD26912F0010F09D06D
:101C94000C49CA6942F00402CA610949CA6922F0BE
:101CA4000102CA6140F20112934202D0044AD36095
:101CB4007047034AD36923F00103D361704700BF1F
:101CC40000200240F8010020074B1B6913F0800F2D
:101CD40007D0054B054A5A6002F188325A60002049
:101CE40070470120704700BF002002402301674570
:101CF400034A136943F0800313610020704700BF57
:101D04000020024038B5044601F08AF90546164B16
:101D1400DB6813F0010F0AD0B4F1FF3FF7D024B110
:101D240001F07EF9401BA042F1D903201BE00E4BC9
:101D3400DB6813F0200F02D00B4B2022DA600A4B31
:101D4400DB6813F0100F0BD1074BDB6913F0010FA5
:101D540006D1054BDB6813F0040F01D1002002E02B
:101D6400FFF77AFF012038BD002002402DE9F84337
:101D74001E46244B1B7E012B41D004460F46904641
:101D8400204B01221A764CF25030FFF7BBFF03467A
:101D940078BB012C08D0022C03D04FF004091C4658
:101DA40007E04FF00209FAE74FF00109F7E70134C1
:101DB400E4B24C451DD22101C1F12002A1F120035E
:101DC40028FA01F106FA02F2114326FA03F3194341
:101DD40089B207EB4400FFF731FF4CF25030FFF7B4
:101DE40091FF094B1D6925F001051D61034600287B
:101DF400DDD0044A002111761846BDE8F883022399
:101E0400FAE700BFF80100200020024082B0084B2E
:101E14001B68084AA2FB03235B0A00FB03F301933C
:101E240000BF019B5A1E0192002BF9D102B07047EA
:101E340064000020D34D621070B582B0044603687C
:101E440013F0010F2CD09A4B5B6803F00C03042BA6
:101E54001DD0974B5B6803F00C03082B12D063680A
:101E6400B3F5803F41D0002B55D103F1804303F5F6
:101E740004331A6822F480321A601A6822F4802229
:101E84001A6037E08A4B5B6813F4803FE7D0884BD5
:101E94001B6813F4003F03D06368002B00F0AE818D
:101EA400236813F0020F75D0814B5B6813F00C0F9D
:101EB4005FD07F4B5B6803F00C03082B54D023697D
:101EC400002B00F08A807B4B01221A6001F0A8F8F5
:101ED4000546774B1B6813F0020F75D101F0A0F88B
:101EE400401B0228F5D903208DE1714A136843F49D
:101EF40080331360636843B301F092F805466C4B7A
:101F04001B6813F4003FCBD101F08AF8401B64280E
:101F1400F5D9032077E1B3F5A02F09D0644B1A68F3
:101F240022F480321A601A6822F480221A60E1E7EF
:101F340003F18043A3F53C331A6842F480221A600B
:101F44001A6842F480321A60D4E701F069F8054651
:101F5400574B1B6813F4003FA2D001F061F8401BFB
:101F64006428F5D903204EE1514B5B6813F4803F9C
:101F7400A5D14F4B1B6813F0020F03D02369012B2B
:101F840040F03E814A4A136823F0F803616943EA4A
:101F9400C1031360236813F0080F33D0A369002B27
:101FA4005CD0444B0122C3F8802401F039F8054683
:101FB4003F4B5B6A13F0020F21D101F031F8401B53
:101FC4000228F5D903201EE1394A136823F0F803E7
:101FD400616943EAC1031360DCE7364B00221A60EF
:101FE40001F01EF80546324B1B6813F0020FD1D0E6
:101FF40001F016F8401B0228F5D9032003E1012063
:10200400FFF704FF236813F0040F00F09780284BB8
:10201400DB6913F0805F34D1254BDA6942F08052DA
:10202400DA61DB6903F080530193019B0125224BA4
:102034001B6813F4807F26D0E368012B3ED0002B6D
:1020440054D103F1804303F504331A6A22F00102E8
:102054001A621A6A22F004021A6234E0154B002252
:10206400C3F8802400F0DCFF0546114B5B6A13F0D3
:10207400020FC7D000F0D4FF401B0228F5D903207B
:10208400C1E00025D3E70C4A136843F4807313605E
:1020940000F0C6FF0646084B1B6813F4807FCBD1C3
:1020A40000F0BEFF801B6428F5D90320ABE000BF1D
:1020B400001002400000424200700040544A136A7B
:1020C40043F001031362E36833B300F0A9FF06464B
:1020D4004F4B1B6A13F0020F2FD100F0A1FF801B9E
:1020E40041F288339842F3D903208CE0052B09D0C0
:1020F400474B1A6A22F001021A621A6A22F0040299
:102104001A62E0E7424B1A6A42F004021A621A6A3F
:1021140042F001021A62D6E700F082FF06463C4B09
:102124001B6A13F0020F08D000F07AFF801B41F203
:1021340088339842F3D9032065E0E5B9E369002BBD
:1021440060D0334A526802F00C02082A5DD0022B98
:1021540017D0304B00221A6600F062FF04462C4B65
:102164001B6813F0007F47D000F05AFF001B0228C1
:10217400F5D9032047E0264AD36923F08053D3617D
:10218400DCE7244B00221A6600F04AFF0546204B88
:102194001B6813F0007F06D000F042FF401B0228AA
:1021A400F5D903202FE0236AB3F5803F1AD01849EC
:1021B4004B6823F47413226A606A024313434B602E
:1021C400144B01221A6600F02BFF0446104B1B68C7
:1021D40013F0007F0ED100F023FF001B0228F5D975
:1021E400032010E00A4A536823F40033A1680B4328
:1021F4005360DCE7002006E0002004E0012002E058
:10220400012000E0002002B070BD0120FBE700BF08
:10221400001002400000424286B0174B0FCB0DF174
:10222400180C0CE90F0040F20123ADF80430134BF5
:102234005B6803F00C02082A02D0114806B070470C
:10224400C3F3834218326A4412F8100C13F4803F2B
:102254000DD00A4B5B68C3F3404318336B4413F847
:10226400142C074BB3FBF2F303FB00F0E6E7054B3A
:1022740003FB00F0E2E700BF2080000800100240EA
:1022840000127A0000093D0070B504460D46594B12
:102294001B6803F007038B420BD2564A136823F0E2
:1022A40007030B431360136803F007038B4240F0EA
:1022B4009A80236813F0020F06D04F4A536823F024
:1022C400F003A1680B435360236813F0010F52D04D
:1022D4006368012B23D0022B28D0474A126812F0DE
:1022E400020F00F0828044494A6822F0030213433B
:1022F4004B6000F095FE06466368012B1DD0022B4F
:102304002AD03D4B5B6813F00C0F34D000F088FEEC
:10231400831B41F288329342F3D9032062E0364AA8
:10232400126812F4003FDED101205BE0324A1268E9
:1023340012F0007FD7D1012054E02F4B5B6803F0EB
:102344000C03042B17D000F06BFE831B41F2883280
:102354009342F2D9032045E0274B5B6803F00C035A
:10236400082B08D000F05CFE801B41F288339842B1
:10237400F2D9032036E01F4B1B6803F00703AB427E
:102384000AD91C4A136823F007032B43136013680C
:1023940003F00703AB422AD1236813F0040F06D0DD
:1023A400154A536823F4E063E1680B4353602368E0
:1023B40013F0080F07D0104A536823F460532169BF
:1023C40043EAC1035360FFF727FF0B4B5B68C3F37A
:1023D40003130A4AD35CD840094B1860002000F06C
:1023E400EFFD002070BD0120FCE70120FAE7012089
:1023F400F8E700BF00200240001002403C800008C3
:1024040064000020014B1868704700BF640000207E
:1024140008B5FFF7F7FF044B5B68C3F30223034AD5
:10242400D35CD84008BD00BF0010024034800008CF
:1024340008B5FFF7E7FF044B5B68C3F3C223034A05
:10244400D35CD84008BD00BF0010024034800008AF
:1024540030B4036A23F001030362036A42688469A7
:1024640024F0730C0C6844EA0C0423F0020C8B680F
:1024740043EA0C03114DA84203D005F50065A842B8
:1024840005D123F00803CD682B4323F004030B4D3F
:10249400A84203D005F50065A84207D122F4407292
:1024A4004D6945EA020C8A6942EA0C024260846181
:1024B4004A684263036230BC704700BF002C01408D
:1024C40030B4036A23F480730362036A4268C46904
:1024D40024F0730C0C6844EA0C0523F400738C6834
:1024E40043EA0423114CA04203D004F50064A04243
:1024F40006D123F40063CC6843EA042323F4806305
:102504000A4CA04203D004F50064A04207D122F48F
:1025140040524C6942EA04128C6942EA0412426055
:10252400C5614A68C263036230BC7047002C014035
:1025340030B4036A23F480530362036A4468C269B3
:1025440022F4E6420D6842EA052223F400538D6822
:1025540043EA0533094DA84203D005F50065A842B6
:1025640004D124F480444D6944EA85144460C26172
:102574004A680264036230BC704700BF002C01400B
:1025840010B4036A046A24F001040462846924F028
:10259400F00C4CEA021223F00A030B43826103623B
:1025A40010BC704710B4036A23F0100303628469FB
:1025B400036A24F4704C4CEA023223F0A00343EA89
:1025C40001138261036210BC704710B4846824F460
:1025D4007F4C42EA03220A4342EA0C02826010BCA6
:1025E400704710B50468A26822F070024B68134368
:1025F40023F007030A681A43A2604B68602B24D0B7
:1026040009D8402B10D0502B0DD10A698968006875
:10261400FFF7B6FF07E0702B05D10B698A68C9681C
:102624000068FFF7D2FF10BD03681C6A1A6A22F023
:1026340001021A620268936923F0F003096943EA0C
:102644000113936103681C62EDE70A6989680068F5
:10265400FFF7A8FFE7E7704738B590F83C30012B47
:1026640018D00446012580F83C50022380F83D3000
:10267400FFF7B7FF2268D36823F04003D3602268D2
:10268400D36823F48043D36084F83D50002084F859
:102694003C0038BD0220FCE70368244A904212D073
:1026A40002F5006290420ED0B0F1804F0BD0A2F53B
:1026B4009832904207D002F58062904203D002F52E
:1026C4008062904203D123F070034A681343174A8F
:1026D400904212D002F5006290420ED0B0F1804FC9
:1026E4000BD0A2F59832904207D002F58062904256
:1026F40003D002F58062904203D123F44073CA6888
:10270400134323F080034A691A4302608B68C3624F
:102714000B688362054B984203D003F5006398422B
:1027240001D10B690363012343617047002C01400D
:10273400B0B110B5044690F83D3063B1022384F87B
:102744003D30214651F8040BFFF7A6FF012384F81E
:102754003D30002010BD80F83C30FFF77CFFEDE7F2
:102764000120704730B4036A23F010030362036A44
:102774004468826922F4E6420D6842EA052223F0A5
:1027840020038D6843EA0513114DA84203D005F5D3
:102794000065A84206D123F08003CD6843EA0513FF
:1027A40023F040030A4DA84203D005F50065A84272
:1027B40007D124F440644D6944EA85048D6944EAF0
:1027C4008504446082614A688263036230BC704756
:1027D400002C014038B590F83C30012B66D00446FB
:1027E4000D46012380F83C30022380F83D300C2A4A
:1027F4001AD8DFE802F00719191920191919341920
:10280400191947000068FFF723FE2268936943F013
:10281400080393612268936923F004039361226897
:10282400936929690B439361012384F83D300020A7
:1028340084F83C0038BD0068FFF794FF2268936970
:1028440043F4006393612268936923F48063936182
:1028540022689369296943EA01239361E4E70068E4
:10286400FFF72EFE2268D36943F00803D361226880
:10287400D36923F00403D3612268D36929690B4324
:10288400D361D1E70068FFF753FE2268D36943F4AC
:102894000063D3612268D36923F48063D36122681F
:1028A400D369296943EA0123D361BDE70220C1E763
:1028B4004FF0010C0CFA01FC036A23EA0C030362D7
:1028C400036A8A40134303627047000010B504464C
:1028D40001220068FFF7ECFF2368094A934203D002
:1028E40002F50062934203D15A6C42F400425A64E6
:1028F4002268136843F001031360002010BD00BF79
:10290400002C01404FF0040C0CFA01FC036A23EA8A
:102914000C030362036A8A4013430362704710B5D1
:10292400044604220068FFF7EDFF2268536C43F469
:10293400004353642268136843F0010313600020CA
:1029440010BD024690F83C30012B21D0012380F8C1
:102954003C30CB6823F440738868034323F48063DA
:102964004868034323F400630868034323F4805353
:102974000869034323F4005348690343896923F432
:1029840040430B4311684B64002082F83C007047BD
:102994000220704790F83C20012A22D030B403462C
:1029A400012083F83C00022283F83D201C68626801
:1029B40022F0700262601C6862680D682A436260DB
:1029C4001C68A26822F08002A2601C68A2684968A0
:1029D4000A43A26083F83D00002083F83C0030BC29
:1029E400704702207047000090F82420012A25D067
:1029F4008CB00346012280F82420114A0092026818
:102A0400906810F0010F07D10D48806810F0010F95
:102A140002D10C48824209D09A6A42F020029A629A
:102A24000120002283F824200CB07047506820F461
:102A340070200968014351600020F2E702207047CA
:102A44000028014000240140002808DB0901C9B224
:102A540000F1604000F5614080F80013704700F019
:102A64000F000901C9B2014B1954704714ED00E07D
:102A740000B500F00700C0F1070CBCF1040F28BF3B
:102A84004FF0040C031D062B0FD9C31E4FF0FF3E5D
:102A94000EFA0CF021EA000199400EFA03FE22EA34
:102AA4000E0241EA02005DF804FB0023EEE7000099
:102AB400074AD36823F4E0631B041B0C000200F4F0
:102AC400E060034343F0BF6343F40033D3607047D3
:102AD40000ED00E010B50446054BD868C0F30220B1
:102AE400FFF7C6FF01462046FFF7AEFF10BD00BF4B
:102AF40000ED00E000F01F02400901239340024A68
:102B040042F82030704700BF00E100E00138B0F126
:102B1400807F0BD24FF0E0235861054AF02182F800
:102B240023100020986107221A6170470120704722
:102B340000ED00E0042806D04FF0E022136923F0F2
:102B44000403136170474FF0E022136943F0040358
:102B540013617047704708B5FFF7FCFF08BD00001C
:102B6400064B0022DA61064B1A6942F004021A612C
:102B74001A6942F040021A61704700BFF801002050
:102B840000200240064B0022DA61064B1A6942F02B
:102B940002021A6158611A6942F040021A617047D0
:102BA400F801002000200240264B1B7E012B46D05A
:102BB40070B505460E46234B01221A760368022B94
:102BC40020D04CF25030FFF79DF890BB4FF0FF330C
:102BD4003360AC680121EA68AB6803EBC223A3420B
:102BE40028D92046FFF7CEFF4CF25030FFF78AF881
:102BF400154A136923F0020313610146B8B904F5B9
:102C04000064E8E74CF25030FFF77CF808B101218A
:102C140010E00120FFF7A4FF4CF25030FFF772F8E8
:102C24000146094A136923F00403136102E0346086
:102C340000E00121034B00221A76084670BD0221F0
:102C440008467047F801002000200240F0B583B028
:102C540000252A46ACE0844EB44210D007D9834EF6
:102C6400B4420CD006F58036B44208D013E0A6F581
:102C74008016B44203D006F57026B44207D18C689E
:102C8400002C5FD0012C58D04361082503E0A6F541
:102C94008016B442F3D0BCF1FF0F55D80646940019
:102CA40033684FF00F0E0EFA04FE23EA0E0305FA02
:102CB40004F4234333604B6813F0805F77D06C4B8C
:102CC4009C6944F001049C619B6903F00103019336
:102CD400019B9408A61C674B53F8267002F0030668
:102CE400B6000F23B34027EA030E634B984232D059
:102CF40003F58063984200F0958003F58063984261
:102D040000F0928003F58063984200F08F8003F511
:102D14008063984200F08C8003F58063984218D059
:102D2400062319E0CD68B6E7CD680435B3E7CD686E
:102D34000835B0E7CD680C35ADE703610825AAE78F
:102D44000025A8E70425A6E7061DA2F10804A400AF
:102D5400A6E7052300E00023B34043EA0E03023450
:102D6400444E46F824304B6813F4803F62D0434C01
:102D7400236843EA0C0323604B6813F4003F5FD0DD
:102D84003E4C636843EA0C0363604B6813F4801F92
:102D94005CD03A4CA36843EA0C03A3604B6813F479
:102DA400001F59D0354CE36843EA0C03E360013259
:102DB4000F2A57D8012393400C6804EA030C33EA22
:102DC4000404F4D14C68122C3FF645AF122C3FF6A4
:102DD40062AF01A656F824F0832C0008292D0008C0
:102DE400332D0008452D00089B2C00089B2C00085F
:102DF4009B2C00089B2C00089B2C00089B2C000893
:102E04009B2C00089B2C00089B2C00089B2C000882
:102E14009B2C00089B2C00089B2C00082D2D0008DF
:102E2400392D0008012397E7022395E7032393E74D
:102E3400042391E7114C236823EA0C0323609BE7E6
:102E44000E4C636823EA0C0363609EE70B4CA36893
:102E540023EA0C03A360A1E7084CE36823EA0C030C
:102E6400E360A4E703B0F0BD0000221000003110BD
:102E7400001002400000014000080140000401402D
:102E84008368194201D001207047002070470AB1BD
:102E940001617047090401617047C3685940C1600A
:102EA4007047000070B582B00446036813F0010F48
:102EB40036D03F4BDB6913F0805F49D13C4BDA6974
:102EC40042F08052DA61DB6903F080530193019B85
:102ED4000125384B1B6813F4807F3BD0344B1B6AAD
:102EE40013F4407313D0626802F440729A420ED015
:102EF4002F4A136A23F440702F490126C1F8406415
:102F04000026C1F84064106213F0010F36D1284A3C
:102F1400136A23F4407361680B431362002D3ED19E
:102F2400236813F0020F06D0214A536823F4404368
:102F3400A1680B435360236813F0100F34D01C4A6C
:102F4400536823F4800361690B43536000202CE031
:102F54000025BEE7174A136843F48073136000F03A
:102F64005FF80646134B1B6813F4807FB6D100F05C
:102F740057F8801B6428F5D9032016E000F050F8B8
:102F840006460B4B1B6A13F0020FC0D100F048F841
:102F9400801B41F288339842F3D9032005E0D369BA
:102FA40023F08053D361BBE7002002B070BD00BFA3
:102FB40000100240007000400000424270470000D0
:102FC40010B50446074B1868074BA3FB0030800973
:102FD400FFF79CFD002221464FF0FF30FFF77AFDFA
:102FE400002010BD64000020D34D621008B5074ACC
:102FF400136843F0100313600320FFF759FD00200A
:10300400FFF7DEFFFFF7DAFF002008BD00200240D3
:10301400024A136801331360704700BF180200208E
:10302400014B1868704700BF1802002030B583B008
:103034000190FFF7F5FF0546019CB4F1FF3F00D076
:103044000134FFF7EDFF401BA042FAD303B030BDBB
:103054007047000030B482B00022019290F824201E
:10306400012A00F08F800346012280F824204A6858
:10307400062A2DD80468606B02EB8202053A4FF0F1
:103084001F0C0CFA02FC20EA0C000D6805FA02F28F
:10309400024362630A68092A38D91C68E06802EBB3
:1030A40042021E3A4FF0070C0CFA02FC20EA0C0014
:1030B4008D6805FA02F20243E2600A68103A012AB6
:1030C40034D90020002283F8242002B030BC704799
:1030D4000C2A0DD80568286B02EB8202233A1F24C0
:1030E400944020EA04000C68944020432863D1E70C
:1030F4000568E86A02EB8202413A1F24944020EA00
:1031040004000C6894402043E862C3E71C6820690B
:1031140002EB42024FF0070C0CFA02FC20EA0C000E
:103124008D6805FA02F202432261C6E71A6816485E
:10313400824205D09A6A42F020029A620120C1E7D5
:10314400906810F4000F1BD1906840F40000906068
:103154000A68102A01D00020B4E70C4A12680C490E
:10316400A1FB0212920C02EB82025200019202E0D5
:10317400019A013A0192019A002AF9D10020A1E7AB
:1031840000209FE70220A0E7002401406400002003
:1031940083DE1B4330B583B00023019303689A6830
:1031A40012F0010F2ED104469A6842F001029A608F
:1031B400164B1B68164AA2FB03239B0C019302E0E7
:1031C400019B013B0193019B002BF9D1FFF728FFE1
:1031D400054623689B6813F0010F11D1FFF720FF08
:1031E400431B022BF5D9A36A43F01003A362E36ADD
:1031F40043F00103E362002384F82430012002E059
:10320400002000E0002003B030BD00BF64000020B7
:1032140083DE1B4390F82430012B68D010B504469C
:10322400012380F82430FFF7B5FF00285BD1A36A9F
:1032340023F4407323F0010343F48073A3622368EF
:103244002C4A934227D0A26A22F48012A2625A68BE
:1032540012F4806F05D0A26A22F4405242F48052E4
:10326400A262A26A12F4805F2BD0E26A22F0060204
:10327400E262002284F824206FF002021A602368BC
:103284009A6802F46022B2F5602F1DD09A6842F465
:1032940080129A602AE0A2F58062526812F4702FBC
:1032A400D1D0A26A42F48012A262134A526812F484
:1032B400806FD6D0A26A22F4405242F48052A262B5
:1032C400CFE70022E262D4E70A4A934204D09A6824
:1032D40042F4A0029A6009E0A2F58062526812F4F6
:1032E400702FD3D1F3E7002384F8243010BD0220DB
:1032F400704700BF002801400024014038B503682E
:103304009A6812F0010F01D1002038BD04469A6872
:1033140022F001029A60FFF783FE054623689B684A
:1033240013F0010F0ED0FFF77BFE431B022BF5D9E0
:10333400A36A43F01003A362E36A43F00103E36268
:103344000120E2E70020E0E7002800F08680F8B5DD
:103354000446836A002B50D02046FFF7CFFFA36AB0
:1033640013F0100373D1002871D1A26A22F4885299
:1033740022F0020242F00202A26262682668384920
:103384008E4240D0E1690A43E16842EA4102A568FD
:10339400B5F5807F02D0012D3CD01D466769012F11
:1033A4003BD0716821F46941294371602568AE6896
:1033B4002C4931401143A960A168B1F5807F01D047
:1033C400012902D12369013B1B052568E96A21F41F
:1033D40070010B43EB6223689968234B0B409A42BC
:1033E4002CD0A36A23F0120343F01003A362E36A10
:1033F40043F00103E36201202EE0C36280F824302D
:10340400FFF726FEA8E7E169B1F5402FBBD14FF4E1
:103414000021B8E74FF48075C0E731B9A1690139DB
:1034240045EA413141F40065BBE7A16A41F020015E
:10343400A162E16A41F00101E162B2E70023E362C3
:10344400A36A23F0030343F00103A36204E0A36A25
:1034540043F01003A3620120F8BD0120704700BFB0
:10346400003C0140FDF7E1FFFE0E1FFF0268D36838
:1034740023F0C003D360202380F8393070470268FA
:10348400D36823F49073D3600268536923F0010373
:103494005361202380F83A30704790F83930DBB21A
:1034A400212B01D0022070478368B3F5805F17D0C9
:1034B400036A5A1C02621A7803685A60C38C9BB26E
:1034C400013B9BB2C3844BB90268D36823F08003E9
:1034D400D3600268D36843F04003D3600020704790
:1034E400036A1B880268C3F30803536003691BB9AA
:1034F400036A02330362E1E7036A01330362DDE72F
:103504002DE9F04104460268136923F44053C1686D
:103514000B431361836802691343426913430168CF
:10352400CA6822F4B05222F00C021343CB60026842
:10353400536923F4407381690B4353610268574B09
:103544009A4255D0FEF764FF00EB800000EB800048
:1035540063689B00B0FBF3F5514FA7FB05356D097C
:103564002E01FEF755FF00EB800000EB800063683E
:103574009B00B0FBF3F5FEF74BFF00EB800000EB84
:10358400800063689B00B0FBF3F0A7FB00304009A8
:103594004FF0640808FB10531B013233A7FB0323CD
:1035A4005B0903F0F003F518FEF732FF00EB80002F
:1035B40000EB800063689B00B0FBF3F6FEF728FF86
:1035C40000EB800000EB800063689B00B0FBF3F02D
:1035D400A7FB0030400908FB10631B013233A7FB33
:1035E4000373C3F3431322681D449560BDE8F0815F
:1035F400FEF71EFF00EB800000EB800063689B0079
:10360400B0FBF3F5264FA7FB05356D092E01FEF738
:103614000FFF00EB800000EB800063689B00B0FBB1
:10362400F3F5FEF705FF00EB800000EB8000636814
:103634009B00B0FBF3F0A7FB003040094FF0640897
:1036440008FB10531B013233A7FB03235B0903F070
:10365400F003F518FEF7ECFE00EB800000EB8000B1
:1036640063689B00B0FBF3F6FEF7E2FE00EB80001C
:1036740000EB800063689B00B0FBF3F0A7FB003015
:10368400400908FB10631B013233A7FB0373C3F328
:10369400431322681D449560A8E700BF0038014029
:1036A4001F85EB512DE9F84305460F46164699460A
:1036B400DDF820802B681C6837EA04040CBF012461
:1036C4000024B4421FD1B8F1FF3FF3D0B8F1000F8A
:1036D40005D0FFF7A5FCA0EB09004045EAD92A680C
:1036E400D36823F4D073D3602A68536923F00103A9
:1036F4005361202385F8393085F83A30002385F862
:103704003830032000E00020BDE8F88358B310B53A
:10371400044690F839300BB3242384F839302268F6
:10372400D36823F40053D3602046FFF7E9FE2268F0
:10373400136923F4904313612268536923F02A0325
:1037440053612268D36843F40053D3600020E063DC
:10375400202384F8393084F83A3010BD80F83830AA
:1037640000F032FDD8E7012070472DE9F04182B026
:103774001E4690F83930DBB2202B55D104460D4655
:103784009046002954D0002A54D090F83830012BA8
:1037940052D0012380F838300023C363212380F8FA
:1037A4003930FFF73DFC0746A4F82480A4F82680AE
:1037B40010E000963B46002280212046FFF772FF6E
:1037C40000283BD12B882268C3F308035360236984
:1037D400CBB90235E38C9BB2BBB1E28C92B2013A15
:1037E40092B2E284A368B3F5805FE2D000963B46D0
:1037F400002280212046FFF755FF08BB15F8012B56
:1038040023685A60E6E70135E4E700963B46002268
:1038140040212046FFF746FFA0B9202384F8393021
:10382400002384F8383000E0022002B0BDE8F081C3
:103834000120FAE70120F8E70220F6E70320F4E785
:103844000320F2E70320F0E730B583B0044690F894
:103854003A00C0B220283CD100293DD0002A3DD0F6
:1038640094F83830012B3BD0012384F83830A1621E
:10387400A2850025E563222384F83A30636B194856
:103884009862636B1848D862636B18481863636B5B
:103894005D63206813460A46011D606B00F0D4F98D
:1038A400019523681A6801925A680192019A84F872
:1038B4003850DA6842F48072DA602268536943F05F
:1038C400010353612268536943F04003536128465E
:1038D40000E0022003B030BD0120FBE70120F9E73E
:1038E4000220F7E713390008F1390008FD39000810
:1038F400704708B50168CA6822F04002CA602022F5
:1039040080F83920FFF7F4FF002008BD704708B5A0
:103914000346406A1B681B6813F0200F13D1002371
:10392400C3850268D36823F48073D3600268536943
:1039340023F0010353610268536923F04003536188
:10394400202380F83A30FFF7E1FF08BD08B590F86E
:103954003A30DBB2222B46D18368B3F5805F0FD0B7
:1039640003690BBB03685A68836A591C81621A7025
:10397400C38D9BB2013B9BB2C385F3B1002008BD4C
:10398400826A036943B903685B68C3F3080313805D
:10399400836A02338362EBE703685B68DBB21380FC
:1039A400836A01338362E3E703685B68826A511CBC
:1039B400816203F07F031370DAE70268D36823F0AF
:1039C4002003D3600268D36823F48073D360026851
:1039D400536923F001035361202380F83A30FFF741
:1039E40095FF0020CBE70220C9E7704708B5406A7D
:1039F400FFF7FBFF08BD704710B5446A23685A6996
:103A040094F83930DBB2212B10D023685A6902F0C4
:103A1400400294F83A30DBB2222B11D0E36B43F02E
:103A24001003E3632046FFF7E6FF10BD02F08002B7
:103A3400002AEAD00023E3842046FFF717FDE4E7D9
:103A4400002AEBD00023E3852046FFF718FDE5E7C5
:103A540010B5044602681368D168526913F00F0F59
:103A640008D113F0200F0BD011F0200F08D0FFF76E
:103A74006DFF11E012F001020FD111F4907F0CD10F
:103A840013F0800F02D011F0800F65D113F0400FB6
:103A940002D011F0400F63D110BD13F0010F06D016
:103AA40011F4807F03D0E06B40F00100E06313F079
:103AB400040F04D01AB1E06B40F00200E06313F08D
:103AC400020F04D01AB1E06B40F00400E06313F07D
:103AD400080F04D01AB1E26B42F00802E263E26B11
:103AE400002AD9D013F0200F02D011F0200F21D1D9
:103AF40023685B6903F04003E26B12F0080F00D106
:103B040023B32046FFF7BBFC23685A6912F0400F29
:103B140018D05A6922F040025A61636B73B1124A99
:103B24005A63606B00F0CAF80028B5D0606B436B31
:103B34009847B1E72046FFF709FFD9E72046FFF78A
:103B44005AFFA9E72046FFF756FFA5E72046FFF7EF
:103B540052FF0023E3639FE72046FFF79EFC9BE7A9
:103B64002046FFF7C6FE97E7713B000808B5406A98
:103B74000023C385C384FFF73EFF08BD30B401248E
:103B8400056CAC40C56B6C60046863604368102BC3
:103B940005D0036899600368DA6030BC7047036835
:103BA4009A600368D960F8E700283ED010B4034651
:103BB40000681F4A90422DD81E4A02441E49A1FBA8
:103BC4000212120992001A641C4ADA63022283F870
:103BD4002120016821F47F5121F030015A689C684A
:103BE4002243DC6822431C6922435C6922439C69AA
:103BF4002243DC6922430A43026000209862D862AF
:103C0400186358639863012283F8212083F8200005
:103C140010BC70470A4A02440749A1FB0212120968
:103C240092001A64074ADA63D0E70120704700BFA4
:103C340007040240F8FFFDBFCDCCCCCC000002400D
:103C4400F8FBFDBF0004024038B5044690F820009C
:103C5400012831D0012084F8200094F821000128A3
:103C640004D0002384F82030022038BD022084F8D8
:103C740021000020A0632568286820F00100286046
:103C84002046FFF77BFFE36A5BB12268136843F0C9
:103C94000E0313602268136843F0010313600020CD
:103CA400E3E72268136823F00403136022681368AF
:103CB40043F00A031360EDE70220D6E708B590F855
:103CC4002130022B03D004238363012008BD026842
:103CD400136823F00E0313600268136823F00103D2
:103CE400136003684B4A93424ED9783A934224D0E6
:103CF4001432934230D0143293422FD01432934270
:103D04002FD0143293422FD0143293422FD0143236
:103D140093422FD002F5627293422ED01432934212
:103D24002DD0143293422CD01432934202D04FF44B
:103D3400803203E04FF4805200E00122364B5A6097
:103D4400012380F82130002380F82030436B002BBE
:103D54005ED098470020B9E71022EFE74FF4807255
:103D6400ECE74FF48052E9E74FF48032E6E74FF492
:103D74008012E3E74FF08072E0E70122DEE71022D1
:103D8400DCE74FF48072D9E7244A934224D01432FA
:103D9400934225D01432934224D01432934224D037
:103DA4001432934224D01432934224D014329342D6
:103DB40024D002F56272934223D01432934222D06B
:103DC4001432934221D01432934202D04FF4803201
:103DD40003E04FF4805200E00122114B5A60AFE738
:103DE4001022FAE74FF48072F7E74FF48052F4E7B9
:103DF4004FF48032F1E74FF48012EEE74FF0807217
:103E0400EBE70122E9E71022E7E74FF48072E4E7E9
:103E140000205BE7800002400004024008000240EA
:103E24000000024038B5C36B1A6804682568016C49
:103E340004238B40134200F09B8015F0040F00F024
:103E44009780236813F0200F03D1236823F0040321
:103E5400236003689A4A934246D9783A934224D01D
:103E64001432934228D01432934227D0143293420E
:103E740027D01432934227D01432934227D01432DD
:103E8400934227D002F56272934226D014329342B1
:103E940025D01432934224D01432934202D04FF4EA
:103EA400802203E04FF4804200E00422854B5A60F4
:103EB400C36A03B1984738BD4022F7E74FF48062E4
:103EC400F4E74FF48042F1E74FF48022EEE74FF439
:103ED4008002EBE74FF08062E8E70422E6E7402245
:103EE400E4E74FF48062E1E7774A934224D0143246
:103EF400934225D01432934224D01432934224D0D6
:103F04001432934224D01432934224D01432934274
:103F140024D002F56272934223D01432934222D009
:103F24001432934221D01432934202D04FF48022AF
:103F340003E04FF4804200E00422644B5A60B7E788
:103F44004022FAE74FF48062F7E74FF48042F4E747
:103F54004FF48022F1E74FF48002EEE74FF08062E5
:103F6400EBE70422E9E74022E7E74FF48062E4E765
:103F740002238B40134200F0AB8015F0020F00F0D7
:103F8400A780236813F0200F06D1236823F00A03C7
:103F94002360012380F821300368494A93424BD9B6
:103FA400783A934224D0143293422DD0143293425F
:103FB4002CD0143293422CD0143293422CD014328D
:103FC40093422CD0143293422CD002F56272934265
:103FD4002BD0143293422AD01432934229D0143273
:103FE400934202D04FF4003203E04FF4005200E059
:103FF4000222344B5A60002380F82030836A002B5D
:104004003FF459AF984756E72022F2E74FF4007285
:10401400EFE74FF40052ECE74FF40032E9E74FF4D6
:104024000012E6E74FF00072E3E70222E1E7202204
:10403400DFE74FF40072DCE7234A934224D01432C2
:10404400934225D01432934224D01432934224D084
:104054001432934224D01432934224D01432934223
:1040640024D002F56272934223D01432934222D0B8
:104074001432934221D01432934202D04FF40032CE
:1040840003E04FF4005200E00222104B5A60B2E702
:104094002022FAE74FF40072F7E74FF40052F4E7F6
:1040A4004FF40032F1E74FF40012EEE74FF00072E4
:1040B400EBE70222E9E72022E7E74FF40072E4E7A6
:1040C4008000024000040240080002400000024058
:1040D40008238B4013423FF4EEAE15F0080F3FF473
:1040E400EAAE236823F00E032360026CC16B012344
:1040F40003FA02F24A60836380F82130002380F8D7
:104104002030036B002B3FF4D6AE9847D3E600BFB4
:104114000F4B1A6842F001021A6059680D4A0A40AE
:104124005A601A6822F0847222F480321A601A6883
:1041340022F480221A605A6822F4FE025A604FF474
:104144001F029A60044B4FF000629A60704700BFF0
:10415400001002400000FFF800ED00E000B583B05D
:10416400164B5A6942F001025A615B6903F001037C
:104174000193019B002211460C20FEF7ABFC0C209E
:10418400FEF7B8FC002211460D20FEF7A3FC0D201B
:10419400FEF7B0FC0A480B4B03604FF461434360E5
:1041A40000238360C36003610C2242618361C361A5
:1041B400FFF7ACFA03B05DF804FB00BF0010024047
:1041C4004003002000480040F0B589B004460023B5
:1041D400049305930693079303685C4A934204D0BF
:1041E4005B4A934258D009B0F0BD5A4BDA6942F4A5
:1041F4000032DA61DA6902F400320092009A9A69B4
:1042040042F004029A619B6903F004030193019B49
:104214000423049302230593032307934E4E04A916
:104224003046FEF713FD082304930025059501236A
:10423400069304A93046FEF709FD484E484B336007
:104244007560B5608027F760356175612023B361BF
:10425400F5613046FFF7A8FC66637462414E424B39
:10426400336010237360B560F76035617561B561C3
:10427400F5613046FFF798FC266374622A462946A6
:104284002620FEF727FC2620FEF734FC2268D3689C
:1042940043F01003D360A6E72E4BDA6942F4802280
:1042A400DA61DA6902F480220292029A9A6942F08F
:1042B40008029A619B6903F008030393039B4FF47C
:1042C400806304930223059303230793274E04A9D1
:1042D4003046FEF7BBFC4FF40063049300250595BC
:1042E4000123069304A93046FEF7B0FC204E214B6F
:1042F40033607560B5608027F76035617561202390
:10430400B361F5613046FFF74FFC666374621A4E81
:104314001A4B336010237360B560F76035617561C3
:10432400B561F5613046FFF73FFC266374622A46A7
:1043340029462720FEF7CEFB2720FEF7DBFB226869
:10434400D36843F01003D3604DE700BF004400403E
:10435400004800400010024000080140FC02002018
:104364006C000240B802002080000240000C0140B2
:104374007402002030000240300200201C00024081
:104384002DE9F04F89B0864B9A6942F004029A6194
:104394009A6902F004020192019A9A6942F00802B1
:1043A4009A619A6902F008020292029A9A6942F0AA
:1043B40010029A619B6903F010030393039B4FF06F
:1043C4000009CDF81490CDF81890022707974FF004
:1043D400200ACDF810A0734E04A93046FEF736FC2F
:1043E4004023049304A93046FEF730FC4FF0800BC1
:1043F400CDF810B004A93046FEF728FC4FF48062D3
:104404000492694C04A92046FEF720FC4FF4006393
:10441400049304A92046FEF719FC4FF48055049533
:1044240004A92046FEF712FC4FF00108CDF81880CD
:10443400049505F1804505F5784504A92846FEF75D
:1044440005FCCDF81890049704A92846FEF7FEFB56
:10445400CDF814804FF00409CDF8109004A930462B
:10446400FEF7F4FB102104910DEB010001462846F0
:10447400FEF7ECFBCDF810A004A801462846FEF791
:10448400E5FB03230593CDF8108004A801462046DC
:10449400FEF7DCFBCDF8108004A801462846FEF7A1
:1044A400D5FB082004900DF1100C61462046FEF760
:1044B400CDFB04970DF1100C61462046FEF7C6FBB8
:1044C4001021049169442046FEF7C0FBCDF810A0EA
:1044D40004A92046FEF7BAFBCDF8109004A92046A3
:1044E400FEF7B4FB0820049004A92846FEF7AEFBAF
:1044F400CDF8109004A92846FEF7A8FB05974023A1
:10450400049304A92046FEF7A1FBCDF810B004A93A
:104514002046FEF79BFB4FF48079CDF8109004A958
:104524002046FEF793FBCDF810B004A92846FEF709
:104534008DFBCDF8108004A93046FEF787FB049765
:1045440004A93046FEF782FBCDF8109004A9284652
:10455400FEF77CFB4FF40073049304A92846FEF78E
:1045640075FB4FF48062049204A92846FEF76EFBA3
:104574004FF40053049304A93046FEF767FB4FF44D
:104584008043049304A93046FEF760FB4FF40043D4
:10459400049304A93046FEF759FB09B0BDE8F08F37
:1045A40000100240000C0140001001402DE9F04FC2
:1045B40099B07B4B9A6942F400629A619A6902F459
:1045C40000620192019A9A6942F400529A619B69CD
:1045D40003F400530293029B724EDFF8CC91C6F8A9
:1045E4000090002474604FF0200AC6F808A04FF42D
:1045F400FA6BC6F80CB034617461B4613046FEF7EE
:1046040097F810231693179416A93046FEF7C2F9AB
:1046140060230F9310941194082712971394149401
:104624004FF40072159222460FA93046FEF7D2F8D5
:1046340004220FA93046FEF7CDF83A460FA93046BA
:10464400FEF7C8F84FF4006108914FF480600990B8
:104654000A9430250B950C940D940E940DEB0A0CD2
:1046640061463046FEF76DF9504DDFF84481C5F8D8
:1046740000806C60C5F808A0C5F80CB02C616C61B2
:10468400AC612846FEF754F8CDF858A08023179360
:104694000DF1580C61462846FEF77CF90494052375
:1046A400039303A92846FDF7D7FF5023C8F8243005
:1046B40060230F93109411941297139414944FF44D
:1046C4000072159222460DF13C0C61462846FEF715
:1046D40081F804220DF13C0C61462846FEF77AF875
:1046E4003A460DF13C0C61462846FEF773F84FF448
:1046F400006108914FF4806009900A9430230B9371
:104704000C940D940E940DEB0A012846FEF719F94A
:10471400D8F8443023F40043C8F84430D9F844307E
:1047240023F40043C9F8443021462846FEF7CEF866
:1047340004212846FEF7CAF839462846FEF7C6F88B
:1047440021462846FEF7EBF804212846FEF7E7F851
:1047540039462846FEF7E3F821463046FEF7B6F818
:1047640004213046FEF7B2F839463046FEF7AEF87B
:1047740021463046FEF7D3F804213046FEF7CFF841
:1047840039463046FEF7CBF82B6801221A633268AB
:10479400136843F00103136019B0BDE8F08F00BF44
:1047A4000010024020040020002C0140E0030020FF
:1047B400003401402DE9F04387B0434EB36943F41C
:1047C4000073B361B36903F400730093009B3F4C1F
:1047D4003F4B23604FF48073A3600025E56065615F
:1047E4004FF44023E36165604FF00508C4F810807E
:1047F4002046FEF7A9FD374A536843F480235360EB
:104804004FF4C023059305A92046FEF7EDF804955F
:104814000B2702974FF00109CDF80C9002A920460E
:10482400FEF718FCCDF8109002950223039302A919
:104834002046FEF70FFC0E2302930323039302A9E1
:104844002046FEF707FC0C2302930423039302A9DA
:104854002046FEF7FFFB0723049310230293CDF8B1
:104864000C8002A92046FEF7F5FB2268936843F406
:10487400000343F480739360936843EA09039360ED
:10488400736943EA09037361736903EA09030193D2
:10489400019B114B9D60C3F80C80104A1A61104AA9
:1048A4005A6140F6A2229A609A6842EA09029A6022
:1048B4002A4629463846FEF70DF93846FEF71AF916
:1048C40007B0BDE8F08300BF00100240B003002031
:1048D4000024014000000140000002404C2401403B
:1048E4001C020020F0B585B0274B9A6942F480621F
:1048F4009A619B6903F480630093009B234C244BCF
:1049040023604FF48073A3600025E56065614FF474
:104914006023E3616560052626612046FEF714FDE9
:1049240003950A2301930125029501A92046FEF768
:1049340091FB03950D2301930227029701A92046B9
:10494400FEF788FB0F2301930325029501A9204656
:10495400FEF780FB0197042302930DEB030120462D
:10496400FEF778FB0195029601A92046FEF772FB3B
:1049740023689A6842F480729A609A6842F001024D
:104984009A6005B0F0BD00BF001002408003002013
:104994000028014000B583B001904FF47A730122DE
:1049A40001A90348FEF7E1FE019803B05DF804FB9A
:1049B4004003002070B50C461646002504E014F8A8
:1049C400010BFFF7E7FF0135B542F8DB304670BD58
:1049D40070B5224C002384F8FB3084F8FA300223AB
:1049E40084F8F930012684F8FD6044F2C043A4F849
:1049F400CE304FF4FA43A4F8DA3084F8FE604FF472
:104A0400FA53A4F8D0304FF4C873A4F8CC304FF460
:104A14007A53A4F8E03042F6E063A4F8E230104D93
:104A24004FF4807221462846FBF746FC85F8FA606D
:104A34000C4804600C4BC3600C4B43600C4B83600C
:104A44000C4C25600C4BE3600C4B63600C4BA36077
:104A540003F020FA204603F01DFA70BDC4000020C4
:104A64008405002060070020A4060020940600208E
:104A74008406002050070020D8040020C804002029
:104A8400B80400200C4B93F8FE301BB90B4B93F881
:104A9400FE3043B10A4B4FF47A721A80094B4FF639
:104AA40018421A807047064B4FF47A721A80054BED
:104AB4004FF618421A807047C40000208405002075
:104AC400AC040020AA0400200268D36823F4807395
:104AD400D3600268536923F00103536170470000F7
:104AE40010B5084B00221A70082405E0064B1C7010
:104AF4006420FEF79BFA013C002CF7DA024B0022FB
:104B04001A7010BDC00F0020C20F0020034B187094
:104B1400034B1970034B1A70704700BFC00F00207D
:104B2400C20F0020C10F002038B50025044B1D70B2
:104B3400044C20704FF4FA70FEF778FA257038BDF3
:104B4400C00F0020C20F002038B50025044B1D7093
:104B5400044C20706420FEF769FA257038BD00BF4C
:104B6400C00F0020C20F0020064A00231380064B0A
:104B74001B895B421BB21380002BB8BF5B42034A04
:104B840013807047B2040020B8040020B004002051
:104B9400384BB3F90030002B27DD6FF0C70303FB5C
:104BA40000F0C01309B1404200B2334B1A78C2EB93
:104BB400C201324B03EB4103B3F9023099B2952998
:104BC40018D8C3F1960300FB03F32D4981FB03C1FD
:104BD400DB17C3EB21138342B8BF0346C2EBC20207
:104BE400264901EB420253807047C82303FB00F0BF
:104BF400C00BD7E7963189B2952912D8963300FBBA
:104C040003F31F4981FB03C1DB17C3EB2113834269
:104C1400A8BF0346C2EBC202184901EB420253800B
:104C24007047952B12DD963B1649B1F9001001FB34
:104C340003F3963993FBF1F38342B8BF0346C2EB07
:104C4400C2020E4901EB42025380704796330E496B
:104C5400B1F9001001FB03F3963193FBF1F3984291
:104C6400A8BF1846C2EBC202044B03EB42035880B0
:104C7400704700BFB2040020B50400209400002057
:104C8400B5814E1BAC040020AA04002070B5054673
:104C940014461B4B83FB0502E817C0EBE21083FBB1
:104CA4000423E217C2EBE31398420BD0144A82FBAD
:104CB400012CCA17C2EBEC12934203D0A54201DCCB
:104CC4008C4205DA0F48FBF7D3FB0026304670BD53
:104CD400904210D00C48FBF7CBFB0226642DF5DD87
:104CE40040F69A739C42F1DC0848FBF7C1FB0220B2
:104CF400FFF71AFFEAE70648FBF7BAFB0126EDE7E0
:104D04001F85EB514C8000086480000878800008FF
:104D140054800008F0B589B0FFF720FA3B4C4022DC
:104D24003B492046FEF790FD2046FFF7CDFEFCF7F9
:104D3400CBFF01F05FFB0DF11E01364B188801F02B
:104D440033FB3548FBF714FC00251DB1FCF7D0FFFD
:104D540009B0F0BD2C46C5EBC502304B03EB420352
:104D64005979032938D0C5EBC5022C4B03EB420318
:104D74001971C4EBC4022A4B03EB4203597903298A
:104D840037D0C4EBC402264B03EB42031971C4EBC6
:104D9400C403224901EB4301B1F90A00204A02EBA2
:104DA40043031E79B3F90670B3F90830C4EBC404A5
:104DB40002EB4402B2F90A2004920393029701968B
:104DC4000090B1F90830B1F9062009791548FBF7CC
:104DD4004FFB0135EDB2B8E7104E06EB4206B6F9CB
:104DE4000A20B6F90810B6F90600FFF74FFF307134
:104DF400BFE70B4E06EB4206B6F90A20B6F90810D7
:104E0400B6F90600FFF742FF3071C0E74003002007
:104E1400680400206C00002088800008A4000020A2
:104E240094000020B08000080379012B04D0022BE9
:104E340017D0002343807047B0F90030B0F906C0A2
:104E4400A3EB0C0302FB03F3B0F90A10A1EB0C0172
:104E540093FBF1F39A4202DB23EAE3731AB2428032
:104E6400704730B5B0F90030B0F908C0B0F90CE0C3
:104E7400ACEB0E04A34206DD0CEB0E05AB4202DAEA
:104E84000023438012E0634511DDF444A3EB0C03DB
:104E940002FB03F3B0F90A10A1EB0C0193FBF1F34D
:104EA4009A4202DB23EAE3731AB2428030BD1B1B31
:104EB40001FB03F3B0F90620121B93FBF2F3002B62
:104EC40002DD00214180F1E79942B8BF194609B2D9
:104ED400F8E70000094B1B7873B9094AB2F812C00D
:104EE400C3EBC3004100074820F801C0D189C3EBDC
:104EF400C3035A00044B9952704700BFB504002005
:104F04001C020020A40000209400002008B5354BAA
:104F14001B78002B3BD13449C3EBC30042008818F3
:104F2400895EB0F90620C83A914224DBC3EBC30280
:104F340050002D4A0244B2F90A20C83291421ADCC8
:104F44002A49C3EBC30042008818895EB0F90620E1
:104F5400C83A91420FDBC3EBC3025000234A024418
:104F6400B2F90A20C832914205DC002220490A70B5
:104F740020490A800BE01F490A88501C0880632AD4
:104F840005D91B4A012111701A4A64211180184A5B
:104F940012782AB9184A127812B9184A1278A2B1AA
:104FA4000021174A1170C3EBC30250000E4A024499
:104FB40051800E4A0244518013B1124A12784AB108
:104FC40013B9104B1B784BB908BD0F4A11780C4A22
:104FD4001170F1E70820FFF7B7FDF5E71220FFF79E
:104FE400B3FDF1E7B5040020A400002094000020E4
:104FF400AF04002068000020AE04002060040020FC
:1050040092000020B40400209300002070B5FFF744
:1050140061FF0F4E33780F4D0F4CC3EBC3035800A1
:10502400B5F90020B4F900100C4B1844FFF7FCFE4E
:105034003378C3EBC3035800B5F90020B4F900106A
:10504400074B1844FFF7F0FEFFF760FF70BD00BF89
:10505400B5040020AC040020AA040020A400002011
:105064009400002030B591B0124B5B6B1B685C68F8
:10507400C4F14004104B1B68A34200D005D20E4B70
:105084001C60402C12D011B030BDC3F140052A463B
:105094000A4919446846FBF70FF9002CEFD0224661
:1050A40006490DEB0500FBF707F9E8E700221A6053
:1050B400E9E700BF400300206404002068040020E6
:1050C4002DE9F843374B1B78DBB13748FBF750FA2F
:1050D400FCF7FAFD354C41F20101208801F014FB84
:1050E400334DB5F9CE1089B2608801F00DFBB5F9E6
:1050F400DA1089B2A08801F007FB00251DB1FCF786
:10510400F7FDBDE8F883EC00E01C621B5300294F57
:105114001F44264E397936F8100001F0F5FA231DA4
:10512400B7F9061089B236F8130001F0EDFA631DE1
:10513400B7F9081089B236F8130001F0E5FAA31D97
:10514400B7F90A1089B236F8130001F0DDFAE21D4E
:10515400DFF86480631B5F004744397936F8120036
:1051640001F0D2FA05F101094FEAC903B7F90610B3
:1051740089B236F8130001F0C7FA04F10903B7F94C
:10518400081089B236F8130001F0BEFA04F10A02DD
:10519400B7F90A1089B236F8120001F0B5FA5FFACD
:1051A40089F5ABE7A80400200C8100086C000020FE
:1051B400C4000020A40000209400002010B50024A6
:1051C4000C4B1C700C48FBF7D3F90C4B1C700C4BAC
:1051D4001C7005E00B4B1C706420FDF727FF0134A5
:1051E400072CF7DDFFF76CFF002220210648FDF7AE
:1051F4004EFEFEE7B90F00202C810008C00F0020EE
:10520400C10F0020C20F00200008014010B4146830
:105214002313C3EB00134FEAE37CA1FB033001FB30
:105224000C011B0943EA01730911B3F1004F71F139
:10523400000008DA1846B3F1004F71F1FF3104DAC7
:105244004FF0004001E06FF000400444146010BCD3
:105254007047000070B586B0FFF786FC5B4BB3F96E
:105264000030052B01DD06B070BD5948FBF780F90D
:10527400584B1B78C3EBC301574A32F9112012046F
:105284000592564A32F911301B0404930024544BFE
:105294001C701CE0FFF71EFE4E4C2378C3EBC303C7
:1052A40005AA41F699114C4830F91300FFF7AEFFF7
:1052B4002378C3EBC30304AA41F69911474830F994
:1052C4001300FFF7A3FF0520FDF7B0FE2C460221D3
:1052D4004448FDF7D5FD20B9631C9DB2B4F5FA6FBF
:1052E400D8D3059A3B4B1978C1EBC1033A4800EB7C
:1052F4004300B0F90640A2EB0443B0F90A00001BD6
:1053040093FBF0F3B3F5803F5ADA41F699108342E8
:10531400B8BF03469BB2049DC1EBC1002F4C04EB04
:105324004004B4F906C0A5EB0C40B4F90A40A4EB60
:105334000C0490FBF4F0B0F5803F44DA40F6CC4422
:10534400A042B8BF204680B2C1EBC10C224C04EB92
:105354004C0424797CB140F24C4403FB04F4241340
:10536400214EA6F8CE40214EA6F8CE401C4C4FF05C
:10537400010C84F800C0C1EBC101184C04EB4101DD
:10538400097971B14FF4FA6100FB01F10913164C6C
:10539400A4F8DA10154CA4F8DA10114C2178023173
:1053A40021701249B1F9CE40B1F9DA10039102909B
:1053B400019500940A4909780D48FBF759F852E71A
:1053C4004FF6FF73A7E74FF6FF70BDE7B004002068
:1053D40044810008B5040020A400002094000020AB
:1053E400A80400200008014084050020C400002017
:1053F4007081000838B502212148FDF741FD90B9BC
:1054040038BD254602211E48FDF73AFD68B10A2041
:10541400FDF70CFE6C1CA4B2B5F5FA7FF1D10520A2
:10542400FFF792FBEDE70025ECE7082D05D9154BB6
:1054340000221A70B5F5FA7F06D2082DE0D9124879
:10544400FBF796F8FFF7BAFE4FF47A70FDF7EEFD1E
:1054540002210B48FDF714FD18B9D1E70A20FDF726
:10546400E5FD02210648FDF70BFD0028F6D10820D2
:10547400FFF75AFBFFF7EEFE0520FFF765FBBFE7DA
:1054840000080140B90F0020CC810008F0B40D4C95
:1054940054F821300C4D55F821200C4E02EB012C10
:1054A40056F82C70DB1B44F8213046F82C001844C5
:1054B40044F821000132D2B245F82120000AF0BCA0
:1054C400704700BF9C070020A40F0020A407002001
:1054D400A0F5006080EAE073A3EBE0731F2B20DDEE
:1054E400203BB3F5F46F11DA4FF47A7202FB03F345
:1054F4000D4A82FB03121A44DB17C3EBA22310B13B
:1055040000280BDB012003FB00F0704750B100289A
:1055140002DB4FF47A707047044870474FF0FF3055
:10552400F1E70020704700BF99295D8618FCFFFF52
:1055340080EAE073A3EBE073B3F57A6F0EDA00F15F
:105544005F03BE2B0DD94FF4FA7303FB00F0064B37
:1055540083FB0023C017C0EB232070474FF47A70FD
:1055640070470020704700BF2F8BCA1030B597B02A
:1055740002250C95012310931023119313950024F5
:1055840014944FF4601315930CA8FCF755FC0F23E7
:105594000793089509944FF480630A930B94294662
:1055A40007A8FCF771FE01954FF48043039301A80B
:1055B400FDF778FCFCF726FF084BA3FB00308009BD
:1055C400FDF7A4FA0420FDF7B5FA224621464FF070
:1055D400FF30FDF77FFA17B030BD00BFD34D621026
:1055E40030B589B0FDF702FD454CA36943F00103D2
:1055F400A361A36903F001030693069B0320FDF74F
:1056040057FA002211466FF00B00FDF763FA0022EF
:1056140011466FF00A00FDF75DFA002211466FF0A3
:105624000900FDF757FA002211466FF00400FDF758
:1056340051FA002211466FF00300FDF74BFA0022E5
:1056440011466FF00100FDF745FA002211464FF0B4
:10565400FF30FDF73FFAFFF789FF636923F0010389
:105664006361FEF78DFEFEF7A1FFFFF7A3F8FFF7D6
:1056740039F9FFF7ADF9012220212248FDF707FC93
:10568400FFF700FAFFF746FB1F48FDF7C3FD1F486D
:10569400FDF7C0FDFFF724FA00F012FC01220421FB
:1056A4001B48FDF7F4FB1B4A138A1B040793138A58
:1056B400002110E003EB0120174A4FF4006442F884
:1056C4002040164850F82120224440F8212001337C
:1056D400FF2BEFDD013101290ADC0023104A42F8D7
:1056E40021300E4A42F82130F2E70A20FDF79EFCF1
:1056F40002210448FDF7C4FB0028F6D1E8E000BF0E
:105704000010024000080140B00300208003002084
:10571400000C01401C020020A40700209C0700206C
:10572400A40F0020A04BB3F900303C2B00F30A81F6
:105734000A2BB8BF0A230A3BDB039C4A82FB0312F1
:10574400D817C0EB221080B20021FFF721FA984B42
:105754001B78C3EBC3030021964A32F91300FFF709
:1057640095FEFFF7B5FE002840F0EF800023924C31
:1057740023808F4B1B78C3EBC30301218F4A32F97B
:105784001300FFF783FEFFF7D3FEB4F9003003FBE9
:1057940000F000B28A4A10808A4A13808A4A108034
:1057A40040428A4A10608A4A13608A4B188A07AAC0
:1057B40040F28F2180B2FFF729FDBDF91E00A0F24F
:1057C400776303EB831203EB4203834A82FB0312E6
:1057D400DB17A3EB620303F5B3731BB27F4A138099
:1057E4007F4AB2F9002040F6827101FB02F201F116
:1057F400AF4101F5B30101F24F1181FB021CD11736
:10580400C1EB6C2109B2774A1180774A9289C2EBC5
:10581400C23252001FFA82FC744C2280744A92896C
:10582400C2EBC232520094B2724D2A800CEB0402D5
:10583400714C2280714A14685C4AA2FB0452D2085B
:1058440002EB820202EB8202944200F09180FFF7A5
:10585400D1FD6B4B9B7923B96A4B9B79002B00F0EC
:10586400E980694B00221A70012218211046FFF7C3
:105874004DF9664A136801331360524BB3F9003093
:10588400002BB8BF5B429BB2322B08D84E4BB3F906
:105894000030002BB8BF5B429BB2322B02D95B4B6A
:1058A40000221A60594B1A68594B9A4204D9594834
:1058B400FAF75EFEFFF782FC3D4B1A78564B1A70DE
:1058C400564B1A68564B1A604C4A136801331360DE
:1058D400524B1B68524A12689B1A502BF8D9FFF797
:1058E40095FBFFF741F9484B1B78002B7FF41AAF67
:1058F400444B9B79002B7FF415AF2D4B1B78C3EBE6
:10590400C3032E4A02EB4303B3F90230002BB8BFA2
:105914005B429BB2182B3FF605AF0620FFF714F944
:105924000420FFF711F96420FDF780FB00233D4AB2
:1059340013603D4A1360344B01221A703B48FAF756
:1059440017FEEFE64FF40040FEE6194B1B78C3EB5D
:10595400C3030021174A32F91300FFF797FDFFF73D
:10596400B7FD002801DB012301E74FF0FF33FEE61A
:105974000F4A1278C2EBC205164CA489A4B2049350
:10598400039002910194104BB3F9003000930D4B36
:10599400B3F90030094931F91520064931F91510D8
:1059A4002348FAF765FD52E7B00400201F85EB5148
:1059B400B5040020A40000208007002094000020EB
:1059C400820700208607002084070020C40F0020DF
:1059D400C80F00201C0200206B4CA4078E07002077
:1059E400C000002090070020940600208C070020AF
:1059F400C80400208A07002088070020940700209C
:105A040084060020B8040020B90F0020700700208D
:105A14008038010058820008B4040020BC0F002024
:105A240074070020780700207C070020F881000814
:105A3400108200081E4B1B78FBB91E4B1B7813BB4E
:105A44001D4B1B782BBB1D4BB3F9003013F1320FE8
:105A540005DB1B4BB3F9003013F1320F04DA194B99
:105A6400B3F90030002B1ADB002211461046FFF771
:105A74004DF8154B00221A70FBE601221821022072
:105A8400FFF744F8F5E6012218210320FFF73EF85A
:105A9400EFE6012218210420FFF738F8E9E6012295
:105AA40005210020FFF732F8074B01221A70E0E6C7
:105AB400AF040020AE04002060040020840700200E
:105AC40086070020B20400209807002070470000D9
